{
  "contracts/MathExtended.sol": {
    "MathExtended": {
      "abi": [
        {
          "inputs": [
            {
              "internalType": "uint256",
              "name": "_value1",
              "type": "uint256"
            },
            {
              "internalType": "uint256",
              "name": "_value2",
              "type": "uint256"
            }
          ],
          "name": "add",
          "outputs": [
            {
              "internalType": "uint256",
              "name": "",
              "type": "uint256"
            }
          ],
          "stateMutability": "pure",
          "type": "function"
        },
        {
          "inputs": [
            {
              "internalType": "uint256[]",
              "name": "_values",
              "type": "uint256[]"
            }
          ],
          "name": "addBulk",
          "outputs": [
            {
              "internalType": "uint256",
              "name": "",
              "type": "uint256"
            }
          ],
          "stateMutability": "pure",
          "type": "function"
        },
        {
          "inputs": [
            {
              "internalType": "uint256",
              "name": "_value1",
              "type": "uint256"
            },
            {
              "internalType": "uint256",
              "name": "_value2",
              "type": "uint256"
            }
          ],
          "name": "getGcd",
          "outputs": [
            {
              "internalType": "uint256",
              "name": "",
              "type": "uint256"
            }
          ],
          "stateMutability": "pure",
          "type": "function"
        },
        {
          "inputs": [
            {
              "internalType": "uint256",
              "name": "_value",
              "type": "uint256"
            }
          ],
          "name": "isPrime",
          "outputs": [
            {
              "internalType": "bool",
              "name": "",
              "type": "bool"
            }
          ],
          "stateMutability": "pure",
          "type": "function"
        },
        {
          "inputs": [
            {
              "internalType": "uint256",
              "name": "_value1",
              "type": "uint256"
            },
            {
              "internalType": "uint256",
              "name": "_value2",
              "type": "uint256"
            },
            {
              "internalType": "uint256",
              "name": "_value3",
              "type": "uint256"
            }
          ],
          "name": "mulDiv",
          "outputs": [
            {
              "internalType": "uint256",
              "name": "",
              "type": "uint256"
            }
          ],
          "stateMutability": "pure",
          "type": "function"
        },
        {
          "inputs": [
            {
              "internalType": "uint256",
              "name": "_value1",
              "type": "uint256"
            },
            {
              "internalType": "uint256",
              "name": "_value2",
              "type": "uint256"
            }
          ],
          "name": "swapAwesome",
          "outputs": [
            {
              "internalType": "uint256",
              "name": "",
              "type": "uint256"
            },
            {
              "internalType": "uint256",
              "name": "",
              "type": "uint256"
            }
          ],
          "stateMutability": "pure",
          "type": "function"
        }
      ],
      "evm": {
        "bytecode": {
          "linkReferences": {},
          "object": "608060405234801561001057600080fd5b5061050c806100206000396000f3fe608060405234801561001057600080fd5b50600436106100625760003560e01c806342703494146100675780634330b9041461008f5780635b01c092146100b0578063771602f7146100d8578063aa9a0912146100eb578063c39dc59c146100fe575b600080fd5b61007a6100753660046102ca565b610111565b60405190151581526020015b60405180910390f35b6100a261009d3660046102e3565b610153565b604051908152602001610086565b6100c36100be3660046102e3565b6101ca565b60408051928352602083019190915201610086565b6100a26100e63660046102e3565b6101f7565b6100a26100f9366004610305565b61020a565b6100a261010c366004610347565b610283565b600060025b8281101561014a57610128818461041b565b6000036101385750600092915050565b8061014281610445565b915050610116565b50600192915050565b60008060008385036101695784925050506101c4565b600191505b84821115801561017e5750838211155b156101bb5761018d828661041b565b1580156101a1575061019f828561041b565b155b156101a95750805b816101b381610445565b92505061016e565b91506101c49050565b92915050565b6000806101d7838561045e565b93506101e38385610476565b92506101ef8385610476565b949293505050565b6000610203828461045e565b9392505050565b60008082116102555760405162461bcd60e51b8152602060048201526013602482015272056616c756520332063616e6e6f74206265203606c1b604482015260640160405180910390fd5b6000610261848661048d565b9050826102708261271061048d565b61027a91906104ac565b95945050505050565b600080805b8351821015610203578382815181106102a3576102a36104c0565b6020026020010151816102b6919061045e565b9050816102c281610445565b925050610288565b6000602082840312156102dc57600080fd5b5035919050565b600080604083850312156102f657600080fd5b50508035926020909101359150565b60008060006060848603121561031a57600080fd5b505081359360208301359350604090920135919050565b634e487b7160e01b600052604160045260246000fd5b6000602080838503121561035a57600080fd5b823567ffffffffffffffff8082111561037257600080fd5b818501915085601f83011261038657600080fd5b81358181111561039857610398610331565b8060051b604051601f19603f830116810181811085821117156103bd576103bd610331565b6040529182528482019250838101850191888311156103db57600080fd5b938501935b828510156103f9578435845293850193928501926103e0565b98975050505050505050565b634e487b7160e01b600052601260045260246000fd5b60008261042a5761042a610405565b500690565b634e487b7160e01b600052601160045260246000fd5b6000600182016104575761045761042f565b5060010190565b600082198211156104715761047161042f565b500190565b6000828210156104885761048861042f565b500390565b60008160001904831182151516156104a7576104a761042f565b500290565b6000826104bb576104bb610405565b500490565b634e487b7160e01b600052603260045260246000fdfea2646970667358221220a76fd23f697438ca741319bf8a4a086c641cc8d3aad8c4283ea75a035ba007f564736f6c634300080f0033",
          "opcodes": "PUSH1 0x80 PUSH1 0x40 MSTORE CALLVALUE DUP1 ISZERO PUSH2 0x10 JUMPI PUSH1 0x0 DUP1 REVERT JUMPDEST POP PUSH2 0x50C DUP1 PUSH2 0x20 PUSH1 0x0 CODECOPY PUSH1 0x0 RETURN INVALID PUSH1 0x80 PUSH1 0x40 MSTORE CALLVALUE DUP1 ISZERO PUSH2 0x10 JUMPI PUSH1 0x0 DUP1 REVERT JUMPDEST POP PUSH1 0x4 CALLDATASIZE LT PUSH2 0x62 JUMPI PUSH1 0x0 CALLDATALOAD PUSH1 0xE0 SHR DUP1 PUSH4 0x42703494 EQ PUSH2 0x67 JUMPI DUP1 PUSH4 0x4330B904 EQ PUSH2 0x8F JUMPI DUP1 PUSH4 0x5B01C092 EQ PUSH2 0xB0 JUMPI DUP1 PUSH4 0x771602F7 EQ PUSH2 0xD8 JUMPI DUP1 PUSH4 0xAA9A0912 EQ PUSH2 0xEB JUMPI DUP1 PUSH4 0xC39DC59C EQ PUSH2 0xFE JUMPI JUMPDEST PUSH1 0x0 DUP1 REVERT JUMPDEST PUSH2 0x7A PUSH2 0x75 CALLDATASIZE PUSH1 0x4 PUSH2 0x2CA JUMP JUMPDEST PUSH2 0x111 JUMP JUMPDEST PUSH1 0x40 MLOAD SWAP1 ISZERO ISZERO DUP2 MSTORE PUSH1 0x20 ADD JUMPDEST PUSH1 0x40 MLOAD DUP1 SWAP2 SUB SWAP1 RETURN JUMPDEST PUSH2 0xA2 PUSH2 0x9D CALLDATASIZE PUSH1 0x4 PUSH2 0x2E3 JUMP JUMPDEST PUSH2 0x153 JUMP JUMPDEST PUSH1 0x40 MLOAD SWAP1 DUP2 MSTORE PUSH1 0x20 ADD PUSH2 0x86 JUMP JUMPDEST PUSH2 0xC3 PUSH2 0xBE CALLDATASIZE PUSH1 0x4 PUSH2 0x2E3 JUMP JUMPDEST PUSH2 0x1CA JUMP JUMPDEST PUSH1 0x40 DUP1 MLOAD SWAP3 DUP4 MSTORE PUSH1 0x20 DUP4 ADD SWAP2 SWAP1 SWAP2 MSTORE ADD PUSH2 0x86 JUMP JUMPDEST PUSH2 0xA2 PUSH2 0xE6 CALLDATASIZE PUSH1 0x4 PUSH2 0x2E3 JUMP JUMPDEST PUSH2 0x1F7 JUMP JUMPDEST PUSH2 0xA2 PUSH2 0xF9 CALLDATASIZE PUSH1 0x4 PUSH2 0x305 JUMP JUMPDEST PUSH2 0x20A JUMP JUMPDEST PUSH2 0xA2 PUSH2 0x10C CALLDATASIZE PUSH1 0x4 PUSH2 0x347 JUMP JUMPDEST PUSH2 0x283 JUMP JUMPDEST PUSH1 0x0 PUSH1 0x2 JUMPDEST DUP3 DUP2 LT ISZERO PUSH2 0x14A JUMPI PUSH2 0x128 DUP2 DUP5 PUSH2 0x41B JUMP JUMPDEST PUSH1 0x0 SUB PUSH2 0x138 JUMPI POP PUSH1 0x0 SWAP3 SWAP2 POP POP JUMP JUMPDEST DUP1 PUSH2 0x142 DUP2 PUSH2 0x445 JUMP JUMPDEST SWAP2 POP POP PUSH2 0x116 JUMP JUMPDEST POP PUSH1 0x1 SWAP3 SWAP2 POP POP JUMP JUMPDEST PUSH1 0x0 DUP1 PUSH1 0x0 DUP4 DUP6 SUB PUSH2 0x169 JUMPI DUP5 SWAP3 POP POP POP PUSH2 0x1C4 JUMP JUMPDEST PUSH1 0x1 SWAP2 POP JUMPDEST DUP5 DUP3 GT ISZERO DUP1 ISZERO PUSH2 0x17E JUMPI POP DUP4 DUP3 GT ISZERO JUMPDEST ISZERO PUSH2 0x1BB JUMPI PUSH2 0x18D DUP3 DUP7 PUSH2 0x41B JUMP JUMPDEST ISZERO DUP1 ISZERO PUSH2 0x1A1 JUMPI POP PUSH2 0x19F DUP3 DUP6 PUSH2 0x41B JUMP JUMPDEST ISZERO JUMPDEST ISZERO PUSH2 0x1A9 JUMPI POP DUP1 JUMPDEST DUP2 PUSH2 0x1B3 DUP2 PUSH2 0x445 JUMP JUMPDEST SWAP3 POP POP PUSH2 0x16E JUMP JUMPDEST SWAP2 POP PUSH2 0x1C4 SWAP1 POP JUMP JUMPDEST SWAP3 SWAP2 POP POP JUMP JUMPDEST PUSH1 0x0 DUP1 PUSH2 0x1D7 DUP4 DUP6 PUSH2 0x45E JUMP JUMPDEST SWAP4 POP PUSH2 0x1E3 DUP4 DUP6 PUSH2 0x476 JUMP JUMPDEST SWAP3 POP PUSH2 0x1EF DUP4 DUP6 PUSH2 0x476 JUMP JUMPDEST SWAP5 SWAP3 SWAP4 POP POP POP JUMP JUMPDEST PUSH1 0x0 PUSH2 0x203 DUP3 DUP5 PUSH2 0x45E JUMP JUMPDEST SWAP4 SWAP3 POP POP POP JUMP JUMPDEST PUSH1 0x0 DUP1 DUP3 GT PUSH2 0x255 JUMPI PUSH1 0x40 MLOAD PUSH3 0x461BCD PUSH1 0xE5 SHL DUP2 MSTORE PUSH1 0x20 PUSH1 0x4 DUP3 ADD MSTORE PUSH1 0x13 PUSH1 0x24 DUP3 ADD MSTORE PUSH19 0x56616C756520332063616E6E6F74206265203 PUSH1 0x6C SHL PUSH1 0x44 DUP3 ADD MSTORE PUSH1 0x64 ADD PUSH1 0x40 MLOAD DUP1 SWAP2 SUB SWAP1 REVERT JUMPDEST PUSH1 0x0 PUSH2 0x261 DUP5 DUP7 PUSH2 0x48D JUMP JUMPDEST SWAP1 POP DUP3 PUSH2 0x270 DUP3 PUSH2 0x2710 PUSH2 0x48D JUMP JUMPDEST PUSH2 0x27A SWAP2 SWAP1 PUSH2 0x4AC JUMP JUMPDEST SWAP6 SWAP5 POP POP POP POP POP JUMP JUMPDEST PUSH1 0x0 DUP1 DUP1 JUMPDEST DUP4 MLOAD DUP3 LT ISZERO PUSH2 0x203 JUMPI DUP4 DUP3 DUP2 MLOAD DUP2 LT PUSH2 0x2A3 JUMPI PUSH2 0x2A3 PUSH2 0x4C0 JUMP JUMPDEST PUSH1 0x20 MUL PUSH1 0x20 ADD ADD MLOAD DUP2 PUSH2 0x2B6 SWAP2 SWAP1 PUSH2 0x45E JUMP JUMPDEST SWAP1 POP DUP2 PUSH2 0x2C2 DUP2 PUSH2 0x445 JUMP JUMPDEST SWAP3 POP POP PUSH2 0x288 JUMP JUMPDEST PUSH1 0x0 PUSH1 0x20 DUP3 DUP5 SUB SLT ISZERO PUSH2 0x2DC JUMPI PUSH1 0x0 DUP1 REVERT JUMPDEST POP CALLDATALOAD SWAP2 SWAP1 POP JUMP JUMPDEST PUSH1 0x0 DUP1 PUSH1 0x40 DUP4 DUP6 SUB SLT ISZERO PUSH2 0x2F6 JUMPI PUSH1 0x0 DUP1 REVERT JUMPDEST POP POP DUP1 CALLDATALOAD SWAP3 PUSH1 0x20 SWAP1 SWAP2 ADD CALLDATALOAD SWAP2 POP JUMP JUMPDEST PUSH1 0x0 DUP1 PUSH1 0x0 PUSH1 0x60 DUP5 DUP7 SUB SLT ISZERO PUSH2 0x31A JUMPI PUSH1 0x0 DUP1 REVERT JUMPDEST POP POP DUP2 CALLDATALOAD SWAP4 PUSH1 0x20 DUP4 ADD CALLDATALOAD SWAP4 POP PUSH1 0x40 SWAP1 SWAP3 ADD CALLDATALOAD SWAP2 SWAP1 POP JUMP JUMPDEST PUSH4 0x4E487B71 PUSH1 0xE0 SHL PUSH1 0x0 MSTORE PUSH1 0x41 PUSH1 0x4 MSTORE PUSH1 0x24 PUSH1 0x0 REVERT JUMPDEST PUSH1 0x0 PUSH1 0x20 DUP1 DUP4 DUP6 SUB SLT ISZERO PUSH2 0x35A JUMPI PUSH1 0x0 DUP1 REVERT JUMPDEST DUP3 CALLDATALOAD PUSH8 0xFFFFFFFFFFFFFFFF DUP1 DUP3 GT ISZERO PUSH2 0x372 JUMPI PUSH1 0x0 DUP1 REVERT JUMPDEST DUP2 DUP6 ADD SWAP2 POP DUP6 PUSH1 0x1F DUP4 ADD SLT PUSH2 0x386 JUMPI PUSH1 0x0 DUP1 REVERT JUMPDEST DUP2 CALLDATALOAD DUP2 DUP2 GT ISZERO PUSH2 0x398 JUMPI PUSH2 0x398 PUSH2 0x331 JUMP JUMPDEST DUP1 PUSH1 0x5 SHL PUSH1 0x40 MLOAD PUSH1 0x1F NOT PUSH1 0x3F DUP4 ADD AND DUP2 ADD DUP2 DUP2 LT DUP6 DUP3 GT OR ISZERO PUSH2 0x3BD JUMPI PUSH2 0x3BD PUSH2 0x331 JUMP JUMPDEST PUSH1 0x40 MSTORE SWAP2 DUP3 MSTORE DUP5 DUP3 ADD SWAP3 POP DUP4 DUP2 ADD DUP6 ADD SWAP2 DUP9 DUP4 GT ISZERO PUSH2 0x3DB JUMPI PUSH1 0x0 DUP1 REVERT JUMPDEST SWAP4 DUP6 ADD SWAP4 JUMPDEST DUP3 DUP6 LT ISZERO PUSH2 0x3F9 JUMPI DUP5 CALLDATALOAD DUP5 MSTORE SWAP4 DUP6 ADD SWAP4 SWAP3 DUP6 ADD SWAP3 PUSH2 0x3E0 JUMP JUMPDEST SWAP9 SWAP8 POP POP POP POP POP POP POP POP JUMP JUMPDEST PUSH4 0x4E487B71 PUSH1 0xE0 SHL PUSH1 0x0 MSTORE PUSH1 0x12 PUSH1 0x4 MSTORE PUSH1 0x24 PUSH1 0x0 REVERT JUMPDEST PUSH1 0x0 DUP3 PUSH2 0x42A JUMPI PUSH2 0x42A PUSH2 0x405 JUMP JUMPDEST POP MOD SWAP1 JUMP JUMPDEST PUSH4 0x4E487B71 PUSH1 0xE0 SHL PUSH1 0x0 MSTORE PUSH1 0x11 PUSH1 0x4 MSTORE PUSH1 0x24 PUSH1 0x0 REVERT JUMPDEST PUSH1 0x0 PUSH1 0x1 DUP3 ADD PUSH2 0x457 JUMPI PUSH2 0x457 PUSH2 0x42F JUMP JUMPDEST POP PUSH1 0x1 ADD SWAP1 JUMP JUMPDEST PUSH1 0x0 DUP3 NOT DUP3 GT ISZERO PUSH2 0x471 JUMPI PUSH2 0x471 PUSH2 0x42F JUMP JUMPDEST POP ADD SWAP1 JUMP JUMPDEST PUSH1 0x0 DUP3 DUP3 LT ISZERO PUSH2 0x488 JUMPI PUSH2 0x488 PUSH2 0x42F JUMP JUMPDEST POP SUB SWAP1 JUMP JUMPDEST PUSH1 0x0 DUP2 PUSH1 0x0 NOT DIV DUP4 GT DUP3 ISZERO ISZERO AND ISZERO PUSH2 0x4A7 JUMPI PUSH2 0x4A7 PUSH2 0x42F JUMP JUMPDEST POP MUL SWAP1 JUMP JUMPDEST PUSH1 0x0 DUP3 PUSH2 0x4BB JUMPI PUSH2 0x4BB PUSH2 0x405 JUMP JUMPDEST POP DIV SWAP1 JUMP JUMPDEST PUSH4 0x4E487B71 PUSH1 0xE0 SHL PUSH1 0x0 MSTORE PUSH1 0x32 PUSH1 0x4 MSTORE PUSH1 0x24 PUSH1 0x0 REVERT INVALID LOG2 PUSH5 0x6970667358 0x22 SLT KECCAK256 0xA7 PUSH16 0xD23F697438CA741319BF8A4A086C641C 0xC8 0xD3 0xAA 0xD8 0xC4 0x28 RETURNDATACOPY 0xA7 GAS SUB JUMPDEST LOG0 SMOD CREATE2 PUSH5 0x736F6C6343 STOP ADDMOD 0xF STOP CALLER "
        },
        "methodIdentifiers": {
          "add(uint256,uint256)": "771602f7",
          "addBulk(uint256[])": "c39dc59c",
          "getGcd(uint256,uint256)": "4330b904",
          "isPrime(uint256)": "42703494",
          "mulDiv(uint256,uint256,uint256)": "aa9a0912",
          "swapAwesome(uint256,uint256)": "5b01c092"
        }
      }
    }
  }
}